:100000000C9446000C945D000C945D000C945D0013
:100010000C945D000C945D000C945D000C945D00EC
:100020000C945D000C945D000C945D000C945D00DC
:100030000C945D000C945D000C945D000C945D00CC
:100040000C945D000C945D000C945D000C945D00BC
:100050000C945D000C945D000C945D000C945D00AC
:100060000C945D000C945D000C945D000C945D009C
:100070000C945D000C945D000C945D000C945D008C
:100080000C945D000C945D000C945D0011241FBE67
:10009000CFEFD0E4DEBFCDBF11E0A0E0B1E0E8EFEC
:1000A000F2E000E00BBF02C007900D92AE30B10746
:1000B000D9F70E9499000C947A010C940000CF9318
:1000C000DF9300D01F92CDB7DEB789837B836A832D
:1000D00089818A3031F48A819B81BC018DE00E9444
:1000E0005F0080EC90E0FC018081882F90E08072BE
:1000F0009927892BB1F386EC90E02981FC012083BC
:1001000080E090E00F900F900F90DF91CF910895D5
:10011000CF93DF93CDB7DEB78AE790E02AE730E0F0
:10012000F9012081206EFC0120830000DF91CF9136
:100130000895CF93DF9300D000D0CDB7DEB784E22F
:1001400090E02FEFFC01208385E290E0FC0110821B
:1001500080E692E09A8389830E94880088E790E095
:10016000FC01808191819C838B8389819A81992371
:100170000CF4079695958795959587959595879510
:100180009C018B819C812817390730F085E290E033
:1001900021E0FC012083E2CF89819A8127E030E0D1
:1001A000B9010E945201CB019C018B819C812817CF
:1001B000390730F085E290E023E0FC012083CECFC8
:1001C00089819A8126E030E0B9010E945201CB0179
:1001D0009C018B819C812817390730F085E290E0E3
:1001E00027E0FC012083BACF89819A8125E030E0A5
:1001F000B9010E945201CB019C018B819C8128177F
:10020000390730F085E290E02FE0FC012083A6CF93
:1002100089819A8199230CF40396959587959595F4
:1002200087959C018B819C812817390730F085E2E6
:1002300090E02FE1FC01208391CF89819A8123E016
:1002400030E0B9010E945201CB019C018B819C815D
:100250002817390730F085E290E02FE3FC01208376
:100260007DCF89819A8199230CF401969595879584
:100270009C018B819C812817390730F085E290E042
:100280002FE7FC0120836ACF89819A812B813C81F1
:100290008217930708F462CF85E290E02FEFFC010C
:1002A00020835CCF97FB072E16F4009407D077FDD0
:1002B00009D00E94660107FC05D03EF49095819517
:1002C0009F4F0895709561957F4F0895AA1BBB1BA2
:1002D00051E107C0AA1FBB1FA617B70710F0A61B46
:1002E000B70B881F991F5A95A9F780959095BC0167
:0802F000CD010895F894FFCF41
:0E02F80000000002000000005F000000000097
:00000001FF
